1159991299 0PRESIDE 20000TRUMP      00000000000000000000000000001101101100000010000000100100001010111101001010101010111101101110100100100010000010110101010111010010101010101010110000010101010101010101011010000000001011010101000101010000101110101010101011100000000000000000000000000000101010101010110101010101011010011010000000000000000000101000011010101111001010000000000000000000000000000000000000000000000000000000000000000000000000000000000000000000000000000000000000000000000000000000000000000000000000000000000000000000000000000000000000000000000000000000000000000000000000000000000000000000000000000000000000000000000000000000000
1154170441 0ALABAMA 200  STRANGE    00000000000000000000000000000000000000000000000000000000000011111111161111111111111111111111111111111111116661111111111161111111111111111111116111111111191111111111111116666116161111111111166191111111199999991111111111116616616616666666666161611666111111111111111111111111111111111111666666666666616666111166611111111111111110000000000000000000000000000000000000000000000000000000000000000000000000000000000000000000000000000000000000000000000000000000000000000000000000000000000000000000000000000000000000000000000000000000000000000000000000000000000000000000000000000000000000000000000000000000000
1154170541 0ALABAMA 100  JONES      00000000000000000000000000000000000000000000000000000000000000000000000000000000000000000000000000000000000000000000000000000000000000000000000000000000000000000000000000000000000000000000000000000000000000000000000000000000000000000000000000000000000000000000000000000000000000000000000000000000000000000000000000000000000001111111111111111111116616111611116169996111111111111111111111111166666611666161666111116616111611666666111111661111116116661111111111611161116111611111611961166611111111166161161111111111111611911111611111116111111166111166111666661111116111111661161666661161111116116661111
1154970041 0ALABAMA 200  SESSIONS   16669999999999999999999991199991111199919199999911111179997900000000000000000000000000000000000000000000000000000000000000000000000000000000000000000000000000000000000000000000000000000000000000000000000000000000000000000000000000000000000000000000000000000000000000000000000000000000000000000000000000000000000000000000000000000000000000000000000000000000000000000000000000000000000000000000000000000000000000000000000000000000000000000000000000000000000000000000000000000000000000000000000000000000000000000000000000000000000000000000000000000000000000000000000000000000000000000000000000000000000
1159465941 0ALABAMA 200  SHELBY     16666666161616611616616161111111111111111111111111111111161111111111161111111111111111111111111111111111116661119111111111111111111111111111116111111111111111111111111116666116161111111111111111111111111111111111111119916616616616666666666161611666111111111111111111111111111111111111666666666666616666111166611111111111111111111111111111111111111111111111161611111111111111111111111611111111111111111111111111111111111166161111111111111111111111161111111111111111116111111111111911111191111111161611661111111111111111111111111111116111111111111111116111111111111111111111116111111111661611611116111
1154030081 0ALASKA  200  MURKOWSKI  16661666161616611611616161111111111111111111111111119611161111111111161111111111111111111111111111166611116661111111111111111999111191111911116111111111111991111111116666616616166111111111111111111111111111111111111111116616616616666666661161611111111111111111111111111111111111111111666666666661666661111166611111111111111119111111111661111111111116111111111161111111119911111111111611111111111111111111111111111111111111161111111111111111111116661111111111111111116111111111111111111111111111161111661111111111111611999999911111116111111111111167116111111111111111111111111111111116611111661116111
1154150081 0ALASKA  200  SULLIVAN   16661666161616611616616161111111111111111111111111111111161111111111161111111111911111111111111111111111116661111111111111111991111111111911116161111111111991111111111116616116161111111111999911111111111111111111111111116616616616666666111161611911111111111111111111111111111111111111666666666661616666111166611111111111111111111111111961111111111111111111161619911111119911111111111611661111111111111111111111111111111166161111111111111111111111111111111111111169911196111111166111111111111111161111611611111111111111111111111111116111111111911111116111111111111111111111116111111111661611661116111
1151503961 0ARIZONA 200  MCCAIN     16661666161616611611616161111111111111111111111111111111161111111116199911111111111111111111111111111111116661111111111111116661111111111111116161111161111111119999991166616116166999999991166611111111111111119999111991116616616616666666661661611111111199111111116611111166111111191191969666666666616666111166616999999999999999999999999999999999999999999999999999999999999999999999999999999999999999999999999999999999999999999999999999999999999999999999999999999999999999999999999999999999999999999999999999999999999999000000000000000000000000000000000000000000000000000000000000000000000000000000000
1151542961 0ARIZONA 200  KYL        00000000000000000000000000000000000000000000000000000000000000000000000000000000000000000000000000000000000000000000000000000000000000000000000000000000000000000000000000000000000000000000000000000000000000000000000000000000000000000000000000000000000000000000000000000000000000000000000000000000000000000000000000000000000000000000000000000000000000000000000000000000000000000000000000000000000000000000000000000000000000000000000000000000000000000000000000000000000000000000000000000000000000000000000000000000000000000000000111116111111111111111116111111111111111111111116111111116661611661116119
1152010061 0ARIZONA 200  FLAKE      16161666161616611611616161111111111111111111111111119111161111111111161111111111911111111111111111111111116661199111911161111119111111111911116111111111191111119111111116666116161111111111666691111111111111111111111111116616616616661661116161611666111111111111111111111111111111111111666666666666616666111166619111111111111611111111111111611111111111111166111161111199991111111111111611661111111111111111111111111111111166111611199999999111111111611161111166111169961666111161111111111111111611119999999999999911116166111999911111161111699991191111116111111111111111111111161711111166611611116661111
1152010142 0ARKANSA 200  BOOZMAN    16666666161616611611616161111111111111111111111111111111161111111111161111111111111111111111111111111111116661111111111111111111111111111111116111111111111111111111111116666116161111111111111111111111111111111111111111116616616616666666116161611111111111111111111111111111111111111111666666666666616666111166611111111111111111111111111111111111111111111111161611111111111111111111111611111111111111111111111111111111111166161111111111111111111111161119991111111111116166111111111911111111111111161111661611111111111161111111111111116111111111111111116111111111111111111111116111111111661611611111111
1152130142 0ARKANSA 200  COTTON     16661666161616611616616161111111111111111111111111111111161111111111161111111111111111111111111111111111116661111111111161111111111111111111116111111111111111111111111616666116161111111111111111111111111111111111111111116616616616666666116161611666111111111111111111111111111111111111666666666661616666111166611111111111111111111119911111111111111111111111161611111111111111111111111616661111111111111111111111111111111166161111111111111111111111161111111111111161166666111111111111111111111111111611666611111111111161111111111111116111111111111111116111111111111111111111116111111116661611661116161
1154170171 0CALIFOR 100  HARRIS     61616111616161166161161616111616161666666666666666661661616666616666616666666666666666666616666611666166661116666666666616666666666696666111611111116666666611666666666661167611616616661611111116661116666661166666666666661111161111116116661666166111666666666666666666661166666661111666111111111116166611666611166666666666666166111111116661666666666616661666116666666661611661666666616611661166666661666666666666666666116611666666161666661111666116666166611161611111111111661111666166666616111111166161161116661111111611666661666966616111166666111166111666666666666666666666661666666661111116116661116
1154930071 0CALIFOR 100  FEINSTEIN  91616199999999999999999999111111161666666666666666661669996666611666616111666666666666611116666611666116661116611166666616666116666111166111111111111166116611111166666661167611616111661111111111611116666111166666666111611111161111116116661666166111666116666666616666661166696661111666111111111116161111666611161666666611666161111111111111666666666616661666116161166661111169666666616611661166666661666666696666166616111611666666161666661111116116666161611161611111116111611111666166666616111111166161161111661111111611666611666616616111161166111166111666699999999961666666661666666661111116116661119
1152111262 0COLORAD 200  GARDNER    16661666161616611616616161111111111111111111111111111111161111111111161111111111111111111111111111111111116661111111111111111161111111111111116111111111111111111111111116616116161111111111161111111111111111111111111111116616616616666666611661611111111111111111111111111111111111111111666666666661616666111166611111111111111111111111116661111111111111111111111111111111111111111111111611661111111111111111111111111111111166161119911111111111111111611111111111111161166166111111111111111111111111161111661611111111111111111111111111116111111111111111116111111111111111111111116111111111661611611111111
1154091062 0COLORAD 100  BENNET     61616111616161166166161616111116161666666666666666661661616666611666616111166666666666611116666611666111161116611166116611116116666111166911111111111111116611111166116661167611616616661111111111611116666111166661166111611111161111116116661666166111611116666116616666661166616661111666111111111116161111666611161666666111666161111111111661661111666616661666116161166111111111111111116611111166666611666666666666116616111611666669911111661111116116661111111111611111111111611111611161166611111111166161161111111199111611111116611611116111111166111166111666666166666611111666661666666661111116116661116
11520707 1 0CONNECT 100  MURPHY     61616111616161166161161616611119161666666666666666661669616666611666616661166666666666611116666611666666661116611166666611666116666111166111111111111166116611111166666661167616616111661111111111611116666161166666666111611111161111116116661666166111666116666666616666661166616661111666111111111116166111666611161666666111666161111111111661666611666616661611116161666661111161666661116611111166666611666666666666116616111611666666111111661111116116661111111111611111111111611111611166666611111111166161161111661111111611111116611611116111111166111166111666666166666111619661661666666661111116116661116
11541101 1 0CONNECT 100  BLUMENTHAL 61616111616161166161161616611669161666666666666666661661616666611666616666666666666666611116666611666666661116666666666616666666666661166161111161111166116611111166666661167611616111661111111116661116666111166666666661611111161111116116661666166111666116666666616666666166616661111666111111111116161111666611161666666611666161111111111661666666666696661611116166666661111661666666616611111166666611666666666666666666111611666666161666661111119116661111111111611111111111611111666166666611111111166161161111666611111611661166666616616111116666111166111666666166666611616666661666661161111116116661116
1151501511 0DELAWAR 100  CARPER     61696111616161166166161616111116161666666669666666661669996666611666616116616616666666611116666611666116661116611166116611116116666111166116111111111166111111111166666661167611616616661111111111111116666111116111166111611111161111116116661666166111611116611666616666661166616661111666111111111616161111611611111666666111666111111111111111661111116616661611116161166111111111111111116611111166666611666666666666166616111611666666111111661111116116661111111111611111116111611111611161166611111111166161161111111111111611961166611616616111111166111166111666666166666111111666661666666661111116116661116
1154091611 0DELAWAR 100  COONS      61616111616161166166161616111116661999999966666666661669996666611666616111166666666666611116666611666116661116611166666611116116666111166161111111111111116611111166666661167611616616661111111111611116666111116111166111611111161111116116661666166111611116666666616666661166616661111666111111111116161111611611111666666111666111111111116661661111116616661611116161166111111111111111111111111166666669666666666666116999111611666666111111669999999916661111111111611111116111611111611161166611111111166161161111111111111611661116611116616111111166111166111666666166666111191666661666661161111116116661116
1151465143 0FLORIDA 100  NELSON     61616111616161166161161616111116161666666666666666661661616666611666616111166666661666611116666611666116661116611111116611116116666111166111116111111111111611111166666661167611616111661111111199999116696111166661166961611111161111116116661666166111611116611666916666661166616661111666111111111111161111611611161666666111666111111111111111661111666619961111116161166111111111111111111611111166666611666161696116116616911611661166111111669111116116661111119911611111116111611111611161166611111111169161161111111111111611111111611999996111111166191166111999999999999911999661161666661161111116116661116
1154110243 0FLORIDA 200  RUBIO      16161666161616611616616161111111111111111111111111116116161111111111161111111111111191111111111111111111116661111111111111111111111111111111116111111111111111111111111116666116161111111111999999999991119111111111111111116616616616666666116161611111111111111111111111111111111111111111666666666661616666111166611911111111111119111111111111111116111111111111161611111111111111111111111616111111111111911111111111111111111166111111111119991111111111161111111111111161161111111111111111111111111111161111616616999911111111111111111111116111111111111111116199999999999911111111116111111116661611611116161
1152990944 0GEORGIA 200  ISAKSON    16666666161616611616616161111191111111111111111111111119961111111111161199999999999999999999999919911999116661911111991199991199911199111111116111111111191111111111111116666116161111111191111191119111111111111111111199116616616616666666666161611111111111111111111111111111111111111111666666666666616666111166611111111111111191999111111111111111111111111111161111111111111111111111111611111111111111111111191111911111111166161111111111111111911111111111111111111119116116111111111911111111111611161111661611111111111161111111111119996111111111111111116111111111111191111111116111111111661611616161199
1154150144 0GEORGIA 200  PERDUE     16666666161616611616616161111111111111111111111111111111161111111111161111111111111111111111111111111111116661171111111111111111111111111111196111111111111111111111111116666116161111111111161111111111111111111111111111116616616616666666166111611666111111111111111111111111111111111111666666666666616666111166611111111111111119911119911111111111111111111111161611111111111111111111111611661111111111111111111111111111111166161111111111111111111111111116111111111161116111111116111111111111111111111111661611111111111161111111111991116116611111111111116111111111111111111111116111111111661611611111111
1152071382 0HAWAII  100  HIRONO     61616111616161166161161616111116161666666666666666661661616666611666616666666666666666611616666611666116661116611166666616666116699961169161111111111166119611661166666661167611616116661611111116661116696611166666666666661111161111116116661666166111666116666666616666661166616666611666111111111116166611666611166666666661666161616161616661666611666616661666116166166616661161666661116111116166666666666666696666666666116611666666161666666161666116661111111111611111111161611111666166666611111111166161161111666611119999916616661616616111111666111166111666666666666611666666661666666661111116116661116
1154111282 0HAWAII  100  SCHATZ     61616111616161166161161616111111161666666666666666661661616666616666616116666669666666611116666611666116661116611166666611666666666111169161611111161166116611111166166661167611616616661611111116161116696661166666666666611111161111116116661666166111666116666666616666661166616661111666111111111116161111666611111966666666666161111111116661661111666616661611116161666661611161666666616611111166666611666666666666666616111611666666116666661111116116661111111111611111111111611111666166666611111111166161111111666699999999666666661661116111166666111166611666666166666611616661161666666661111116116661166
1152934563 0IDAHO   200  CRAPO      16161666161616611616616161111111111111111111111111111111161111111111161111111111111111111111111111111111116661111111111161111111111111111111116111111111111111111111111116666116161111111111111111111111111111111111111111116616616616666666111161611666111111111111111111111111111111111111666666666661616666111166619111111111111611111111111111111111111111111166161611111111111111111111111611661111111111111111111111111111111166111111111111111111111111619111111111111161116166111116111111111111111611111111661611111111111166911111111111111111111111111111116111111111111111111911116111111111611611611111191
1154090263 0IDAHO   200  RISCH      16161666161616611616616161111111111111111111111111111111161111111111161111111111111111111111111111111111116661111111111161111111111111111111196111111111111111111111111116666116161111111111666611111111111111111111111111116616616616666666111161611666111111111111111111111111111111111111666666666661616666111166611111111111111619111111111111111111111191111166161611111111111111111111111611661111111111111111111111111111111166111111111111111111111111661111111111111161166166111116111111111111111611111611661611111199111166111111111111111111111111111111116111111111111111111111116111111111611611661116111
1151502121 0ILLINOI 100  DURBIN     61616111616161166161161616611116161666169966666666661661616666616666616666666666666666611116666611666616661116611166999991666116666111166166111111111166119611111166666661167616616116661111111111616616666111166116666666611111161111116116661666166111611116666666616666661166616661111666111111111616166611666611161666666661666161111119916661661111666696661611116161166661111161666666616611611166666611666666666666666616111611666666161666661111116116666161111111611111111111611111611166666611111111166161161116999911111611666666616116616111166666111166111666666166666611666666661666666661111116116661116
1152132521 0ILLINOI 100  DUCKWORTH  61616111616161166161161616611116161666666666666666661661616666611666616116666666666666666116666611666166661116611166666616666116666666666911111111111111116611119666666661167611616116661611111116661116666161166666666661611111161111116116661666166111666116666666616666661166616661111666111111111116161111666611161666666991666161111111111111661111666616661611116166666661111161966666616611119999999999999999699669999999999911996699999999999999999999999999999999699999999111611111666166666611111191166161161111661111111611666661611116616111111166111166111666666166666611616666661666666661111116116661116
1152071722 0INDIANA 100  DONNELLY   61616111616161166166161616111111161666661111666666661661616666611166699911111116661611611116666611666111111111111166666611666111166111166111116111111111111111111166116661166611616111661111111111111116666991166111111111611111161111116116661166166111611111111111616666661166616661111666111161111111161111611616111666611111666111911111111111111111116611111111111111166111111111111111111111111166661111666161666111199611111111661166111111111111116116161111111111611161116111611111611161166611111111166161161111111111111611111111111111116111111166111166111666666111166111111111161666666661111116116661116
1152113322 0INDIANA 200  YOUNG      16661666161616611616616161111111111111111111111111111111161111111111161111111111111111111111111111111111116661111111116611111111111111111111111111111111111111111111111116666116161111111111111111111111111991111111111111116616616616666666116161611111111111111111111111111111111111111111666666666666616666111166611111111111111111111111111111111111111111111111161611111111111111111111111611111111111111111111111111111111111166169111111111119111111111111111111111111161166111111111111111111111111111161111611611111111111111111111111111116111111111111111116111111111111111111111111111111111611116116611161
1151422631 0IOWA    200  GRASSLEY   16666666161616611661616161111111111111111111111111111111161111111111161111111111111111111111111111111111116661111111111161111111111111111111116111111111111111111111111116666116161111111111161611111111111111111111111111116616616616666666616161611111111111111111111111111111111111111111666666666666616666111166611111111111111111111111111111111111111111111166161611111111111111111111111611661111111111111111111111111111111166111111111111111111111111111111111111111111111111111111111111111111111111111111661611111111116161111111111111116111111111111111116111111111111111111111116111111116661611616661111
1154150231 0IOWA    200  ERNST      16661666161616611616616161111111111111111111111111111111161111111111161111111111111111111111111111111111116661111111111161111111111111111111116161111111111111119111111116666116161111111111166611111111111111111111111111116616616616666666616161611111111111111111111111111111111111111111666666666661616666111166616111111111111111111111111111111111111111111161161611111111111111111111111611161111111111111111111111111111111166111111111111111111111111611111111111111161166166111111111111111111111111111111661611111111111161111111111111116116111111111111116111111111111111111111116111111111661611616661111
1151485232 0KANSAS  200  ROBERTS    16666666161616611616616161111111111111111111111111111111161111111111161111111111111111111111111111111111116661111111111111111111111111111111116111111111111111111111111116666116161111111111111111111111111111111111111111116616616616666666166161611111111111111111111119999111111111111111666666666666616666111166611111111111111111911111111111111111111111111111161611111111111111111111991611111111111111111111111111111111111166161111111111111111111111161111111111111111116111111111111111111111111111161111661611111111111111111111111111116111111111111111116111111111111111111111116111111111661611616661111
1152972232 0KANSAS  200  MORAN      16161666161616611616616161911111111111111111111111111111161111111111161111111111111111111111111111111111116661111111111111111119911111111111116111111111111111191111911616666116161111111119166611111119991111111111111191116616616616666666166161611961111111111111111111111111111111111111666666666661616666111166611111111111111119111111116611111111111191111111161661111111111111111111116611111111111111111111111111111119111166111111111111191111111911611991111111111111116166111111119911111111111111161111661611111999111111111111111991116111111111111111116111111111111111161911111111111111611116116661161
1151492151 0KENTUCK 200  MCCONNELL  16666666161616611616616161111111117111111111111111111111161111111111161111111111111111111111111111111111616661111111111111111111111111111111116111111111111111111111111116666116161111111111111111111111111111111111111111116616616616666666166161611111111111111111111111111111111111111111666666666666616666111166611111111111111111111111111111611111111111111111161611111111111111111111111611111111111111111611111111111111111166161111111111111111111111111111111111111111166111111111111111111111111111161111661611111111111111111111111111116111111111111111116111111111111111111111116111111111661611611111111
1154110451 0KENTUCK 200  PAUL       66166666161616661611616166111116111111111111111111111111161111111111161111111111111111166111999966111111116661111111111161111111111111111166111611611111111111111111111616666166161111111111666661616661111111111111111111116616666616661661116111616666111111111111199999999166111111111111666666666666616666111166619111111116111661111111116666616666661111111666161661111111111111911111166661661111111111111111119111111111111166116611111111111111111666616166616116111166161666166611169111111111611616111616616669111111116166116611911111166616699111666111116111111111111111666111111111111116616116116661669
1152091945 0LOUISIA 200  CASSIDY    16661666161616611616616161111111111111111111111111111111161111111111161911111111111111111111111111111111116661111111111111111111111111111111116111111111111111111111111116616116161111111111111111111111111111111111111111116616616616666666666161611111111111111111111111111111111111111111666666666661616666111166611111111111111111111111111111111111111111111116161611111111111111111111111616661111111111111111111111111111111166161111111111111111111111611119991111111161166111111111111111111111111111111111616111111111111161911111111111116111111111111111116111111111111111111111111111111111611111696611111
1154170345 0LOUISIA 200  KENNEDY    16166666161616611611616161111111111111111111111111111111161111111111161111111111111111111111111111111111116661111111111161111111111111111111116111111111111111111111111116666116161111111111166111111111111111111111111111116616616616666666116161611111611111111111111111111111111111611661666666666661616661111166611111111111111611111111111111111111111111111116161661111111111111111111111611661111111111111111111111111111111111111111111111111111111111611166111111111161161111111111111911111119111111111111666611111111111161111111111111116111111111111111116111111111111111111111116111111116661611661116161
11541300 2 0MAINE   328  KING       61616111616161166161161616111111111111166666161666661661616666611166616111111116661611611111666611666116661116611111116611116116666111166111111111111111111111111166116661166611616616661111111111611116666111166111166111611111161111116116661666166111611116666666616666661166616661111666111111111111161111611611111666666111666111111111111111661111116616661611116161166111111111111111116611111166666611166666666116116616111611666666111111661111116116661111111111611111116111611111611161166611111111166161161111111111111611116611611116616111111166111166111666666166666111616661161666661161111116116661116
11549703 2 0MAINE   200  COLLINS    16611161111116111611611111111111111111111161111111116611161111111111166111111111111111111111111111166611116661111111111111116111111111111111116111111111111111111111116666616616166111111111111111111111111111111111111111116616616616666616666166111111111111111111111111161111111111111111666666666161666611111166611111111111111111111111111111111111111116111111161161111111111111111111116611111111111111111111111111111111111111161111111111111111111116661111111111611111116111111111111111111111111111161111661111111111111611111111111111116111111111111111111111111111111111111111111111111111111111111611161
1151540852 0MARYLAN 100  CARDIN     61616111616161166161161616111116161666666666666666661661616666611666616666616166666666611116666611666616661116611166666616666116666111166161111111111116116611111166666661167611616116661111111111611116666111166666166111611111161111116116661666166111611116666666616666661166616661111666111111111116161111666611161666666611666161111111111661661111666616661611116161166661191161666666616611111166666611666666666666666666111611666669911111661111116196666111111191611111111111611111611161166611111111166161161111661111111611661116611616116111166166111166111666666166666666616666661666666661111116116661116
1152033052 0MARYLAN 100  VAN HOLLEN 61616111616161166161161616611616161666666666666666661661616666616666616666666666666666611116666611666616661116611166666616666116666111166161111911111166116611111166666661167611616616661611111111611116666191166666166666611111161111116116661666166111666116666666616666661169916661111666111111111116161111666611161666666661666161111111116661661111666616661611116161166661111161666666616111111166666661666666666666666666111611666666111111661111116116661111111111611111111111611111611161166611111111166161161111666111111611661161611616616111161166111166111666666166666616666666661666666661111116116661116
11514435 3 0MASSACH 100  MARKEY     61616111616161166161161616611116161666666666666666961661616666616666616666666666666666666616666611666166661116661166666616666666666161166161111111111166666611116666666661167611616666661611111116666116666661166666666666661111161111116116661666166111666666666666666666661166666661111666111111111116166611666611166666666666666166111111116661666666666616661666116166666661611661666666616111161166666661666666666666666666116611666666161666661111696116666166661161611116119111661111666166666616111111166161161116666611111611666666666666666111161666166166111666666666666611666666661666666661111116116661116
11541301 3 0MASSACH 100  WARREN     61616111616161166161161616611666166666666666666666661661616666616666616666666666666666666616666611666166661116666666666616666666666666666161111111166666666611666666666661167611616666661616111116661116666666666666666666661111161111116116661666166111666666666666666666666666666661616666111111161116166611666611166666666666666166111111116661666666666616661666116166666661611661666666616611661166666661666666666666666666116611666666161666661111666116666166661161611116111111661111666166666616111111166161161116666611111611666666666666666111166666111166111666666666666611666666661666666661111116116661116
1152092323 0MICHIGA 100  PETERS     61616111616161166161161616111116161666666666666666661661616666611666616616666666666669611116666611666116661116611169666611666111166661166161111111111166116611661166666661167611616911661111111111611116666111111661166661611111161111116116661666166111611666611666616666661166616661111666111111111111161111666611161666666661666111111111111111661111666616669611116166666661611611111111116111111166666661666666666666666666116611666666111111661111666116661111111111611111116111611111666961166611111111166161161111661111111611661111611666616111111166111166111666666166666611161666661666666661111116116611116
1152973223 0MICHIGA 100  STABENOW   61616111616161166161161616111116161666666666666666661661616666611666616666666116666666611116666611666116661116611166666611666116666661166161191111111166116611661169966661167611616111661111111111111116666111166666666661611111161111116116661666166911666116611666616666661166616661111666111111111111161111666611161666666661666111111111111611661111666616661611111166666661611611111111116111111166666661666666666666666666116611666666161666661111666116661111111111611111116111611111666966666611111111166161161111661111111611666661611666616111166666111166111666666666666611616116661666666661111116116661116
1154070033 0MINNESO 100  KLOBUCHAR  61616111616161166161161616111111161666666666666666661661616666611666616116666666666666611116666611666116661116611166666611666116666111166111111111111166116611111166666661167611616111661111111111611116666111166666666111611111161111116116661666166111611116666666616666661166616661111666111111111111161111696611161666666661666161111111111111661111666616111611116161166661111161666661116611111166666611666666666666116666111611666666111111661111116116661111111111611119916111611111611166666611111111166161161111661111111611661111111616616111111166111166111666666666666611616666661666666661111116116661116
1154090433 0MINNESO 100  FRANKEN    61616111616161166161161616111116161666666666666666661661616666611666616666666666666666611116666611666116661116611166666616666116666111166161111111111166116611111166666661167611616699661611111111611116666119166666666116611111161111116116661666166111611116666666616666661166616699991666111111111116161111666999999666666666666160000000000000000000000000000000000000000000000000000000000000000000000000000000000000000000000000000000000000000000000000000000000000000000000000000000000000000000000000000000000000000000000000000000000000000000000000000000000000000000000000000000000000000000000000000000000
1154170633 0MINNESO 100  SMITH      00000000000000000000000000000000000000000000000000000000000000000000000000000000000000000000000000000000000000000000000000000000000000000000000000000000000000000000000000000000000000000000000000000000000000000000000000000000000000000000000000000000000000000000000000000000000000000000000000000000000000000000000000000000000001111111116661661111666616661611116161166661111161666661116611111166666661666666666666666666116611666666111666661111116116661111111111611111116111611111611166666611111111166161161111661111111611661111111616616111111166111166111666666666666611616666661666666661111116116661116
1151400946 0MISSISS 200  COCHRAN    16666666161616611616616161111111111111111111111111111111161111111111161111111111111111111111111111111111116661111111111111111111111111111111116111111111111111111111111116666116161111111119111111111119999999999999999999916616616999999666999161611111111111111111111111111111111111111111666666666666616666111166611999999111111111111111111111111111111111119111161611111111111111111111111611110000000000000000000000000000000000000000000000000000000000000000000000000000000000000000000000000000000000000000000000000000000000000000000000000000000000000000000000000000000000000000000000000000000000000000000
1152953446 0MISSISS 200  WICKER     16666666161616611616616161111111111111111111111111116116161111111111161111111111111111111111111111111111116661111111111111111111111111111111116111111111111111119111111116666116161111111111111111111111111111111111111111116616616616666666116161611111111111111111111111111111111111111111666666666666616666111166611111111111111111111111111111111111111111111111161611111111111111111111111611611111111111111111111111111111111166161111111111111111111111111111111111111161166111111111111111111111111111161111661611111111111111111111111111116111111111111111116111111111111111111911116111111111661611616661161
1154170746 0MISSISS 200  HYDE-SMITH 00000000000000000000000000000000000000000000000000000000000000000000000000000000000000000000000000000000000000000000000000000000000000000000000000000000000000000000000000000000000000000000000000000000000000000000000000000000000000000000000000000000000000000000000000000000000000000000000000000000000000000000000000000000000000000000000000000000000000000000000000000000000000000000000000001111111111111111111111111111111166161111111111111111111111111111111111111161166111111116119111111111111111161111661611111199111111111111111111111111111111111111116111111111111111111999116111111111661611616661111
1152973534 0MISSOUR 200  BLUNT      16996666161616611616616161111111111111111111111111111111161111111111161111111111111111111111111111111111116661111111111111111111111111111111116111111111111111111111111116666116161111111111111111111111111111111111111111199999616616666666666161611111111111111111111111111111111111111111666666666661616666111166611911111111111111111111111111111111111111111111161611111111111111111111111611111111111111111111111111111111991166161111111111111111111191111111111111111161116166111111111111111111119911161111661611111111111111111111111111116111111111111111116111111111111111111111116111111111661611611111911
1154070134 0MISSOUR 100  MCCASKILL  61616111616161166161161616111111161666661116666666661661616699611666616611166116661666611616666611666116661116611111116611666916666111166111116111111111111111191166666661167611616111661111111111111116666111111111111111611111161111116116661666166111611199999999916666661166616661111666111111111111161111611611111666611111666111111111111111111111666696111111111161166111111111111111116111661166666611666166666111116616111611666666111111661111116116661111111111611161111111611111611161166611111111166161161111111111111611111111111111116111111166111166111116666161161191611661161666669661111116116661196
1152133864 0MONTANA 200  DAINES     16161666161616611616616161111111111111111111111111111111161111111111161111111111111111111111111111111111116661111111111161111111111111111111116111111111111111111111111116666116161111111111166611111111111111111111111111116616616616666661111611611111111111111111111111111111111111111111666666666666616666111166611111111111111111111111116661111111111111111166161661111111111111111111116611661111111111111111111111111111111166111111111111111111111111661111111111111161166166111111111111111111111111111111666611111111111111111111111191111116111111111119116111111111111111111111111111111111611616111111161
1154070264 0MONTANA 100  TESTER     61616111616161166166161616611116161666666666666666661661616666611166616111111116661666611116666611666116661116611111116611666116666111166161111111111111116611111166666661166611616111661111111111611116666111111661166661611111161111116116661666166111611116666666616669999166616661111666111111111116166111611611161666666111666111911111116661666611666616661611116161166111111111111111116111111166666611166666666661116616111611666696111111111111116116661111111111611111111111611111611161166611111111161111161111111111111611111111111116616111111166111166111666666111666111111661161666666661111116116661116
1154130235 0NEBRASK 200  FISCHER    16661666161616611616616161111111111111111111111111111111161111111111161111111111111111111111111111111111116661111111111161111111111111111111116111111111111111111111111116666116161111111111166611111111111111111111111111116616616616666666616161611111111111111111111111111111111111111111666666666661616661111166611111111111111111111111111111111111111111111111161611111111111111111111111611661111111111111111111111111111111166111111111111111111111111661111111111111161166196111111111111111111111111161111661611111111111999111111111111116111111111111111116111111111111111111111116111111111661611611111111
1154150335 0NEBRASK 200  SASSE      16161666161616661616616161111111111111111111111111119111161111111111161111111111111111111111111111111111116661111111111191111669111111111111116161111111111111111111911116666116661111111111166611111111111111111111111111116616616616666666116111611666111111111111111111111111111111111111666666666661616666111166616111111111111611111111111111111111111111111166161661111111111111111111111611661111111111111111111111111111111166111111111111111111111111111111111111111161166166111111111111111111111616111611666661111111111161111111111111111111699111111111116111111111111111111111116111111111661611661116161
1152073065 0NEVADA  200  HELLER     16611666111611111111611111111111111111111111111111116111161111111111161111111111111111111111111111111111116661111111911161111111111111111161111111111111661111119111111666616116161111111611661111611111111111119999999911116616616616666666111111611111111111111111111111111111111111111111666666666661616666111166611111111111111119111119999661111111111111111111161619111111111111111111111611111111111111111111111111111111991166161111111119991111111111611111111111111161661666111116111911111111111111161111661611111199111111111111111111116111161111191111116111111111111111111111116111111111661611996111199
1154170065 0NEVADA  100  CORTEZ MAST61616111616161166161161616111616161666666666666666661661616666611666616111166116661666611116666611666166661116616611666616666116666111166111111111111166666611111166666661167611116616661611111116111116666161169999999911611111161111116116661666166111666116666666616666661166616661111666111111111116166611666611161666666661666161111111111111666611666616661111116166666111111161666661111611111166666661666666666666666666116611666666161666661111116116161111111111611119911111611111666166666611111111166161161111661111111611666661611611116111111166111166111666666666666611616666661666666661111116116661116
11540906 4 0NEW HAM 100  SHAHEEN    61616111616161166161161616111111161666666666666666661661616666611666616116666666666666611116666611666116661116611166116611666116666111166161111111111166116611111166666661167611616111661119111111111116666111166661166111611111161111116116661666166111611116666666616666661166616661111666111111111116161111666611161666666111666111111111111111661111666616661611116161166111111111111111116611111166666661666666666666666616111611661196161611669111116116661119999999999991116111611111619961166611111611166161161111111111111611111111611691116111111166111166111666666166666111111661161666666661111116116661116
11541702 4 0NEW HAM 100  HASSAN     61616111616161166161161616111111161666666666666666661661616666611666616116666666666666611116666611666116661116611166166616666116666111166161111111111166116611111166666661167611616111661111111111111116666161166666666661611111161111116116661666166111611116666666616666661166616661111666111111111116161111666611161666666611666111111111111111661111666616661611116161166111111111111111116611111166666661666666666666666616111611666666111119991111116116661111111111611111111111611111611166666611111611166161161111111111111611111111111611116111111166111166111666666166666111111666661666666661111116116661116
1152937312 0NEW JER 100  MENENDEZ   61616111616161166166161616111116161661666666666666661661616666611666616666616666666666611116661111666666661116661111666611666116666111166961911111111166116611111166666661167611616916661619999999999999999999999999666199999999999999999996661666166999699999999999999999999999999999991666111111111116161111666611161666666661666161111111116661666611666616661611116166666661611661666666611611111166666611666666666666666666116611666666111111669991666116661111111111611111611111611111666166666611111111166161111111661111111611666666666666616111116666111166111666666166666611616666661666666661111116116661116
1154130812 0NEW JER 100  BOOKER     61616111616161166166161616611666166666666666666666661661616666616666616666666666666666666616666611666166661116666666666616666116666666666961611111166666666611666666666661167611616616661611111116666116666161166666666666661111161111116116661666166111669666666666666666666999999999991666111111161116166611666611166666666661666166111999999661666666666616661666116166666661611661666666616111661996666661666666666666666999116611696666111666661111166116661111111111611119911161611111666166666616111111166161111111661111111611666666666666616111166666111166911666666666666611666666661666666661111116116661116
1152093066 0NEW MEX 100  HEINRICH   61616111616161166166161616111616691666666666666666661661616666616666616661166666666666611116666611666166661116611166666611666616666111166161111111111166116611661166166661167611116616661111111116661116666161166666666161611111161111116116661666166111699916666666616666661166616661111666111111111116161111666611161666666616666111111111116661661111666616669611116666666661111161999999616111111166666661166666666666666616111611666666161666669999996116661111111111611111111111611111611166666611111111166161111111661111111611666661611616616111166666111166111666699999999911616666661666666661111116116661116
1152992466 0NEW MEX 100  UDALL      61616111616161166161161616611666661666666666666666669661616666616666616661166116666666616116666611666166661116611166666611666616666111169166111111111166119911661166666661167611616616661111111116661116666161166666666661611111161111116116661666166111611116666666616666666666616661111666111111111116161111666611161666666611666111111111116661661111666616661611116666666661111161666666616111111166666661166666666666666616111611666666161666661111116116661111111111611111111111611111611166666611111111166161161111661111991611666666611616616111166166111166111666666666666611616666661666666661111116116661116
1151485813 0NEW YOR 100  SCHUMER    61616111616161166161161616111111166666666666666666661661616666616666616666666666666666611616666611666116661116611166666616666666666661166161111111111166116611111166666661167611616616661111111116661116666161166666666111611111161111116116661666166111611116666666616666666666616661111666111111111116166111666611161666666661666161111111111611661111666616661611116166666661111161666666616611111166666611666666666666666616111611666666161666661111116116661111111111611111111111611111669166666611111111166161161111661111111611616661666616616111116666111166111666666166666616616666661666666661111116116661116
1152073513 0NEW YOR 100  GILLIBRAND 61616111616161166161161616616666166666666666666666661661616666616666616666666666666666666616666611666666661116666666666616666666666666666166611111166666666611666666666661167616616666661616111116666666666661166666666666661111161111116116661666166111666666666666666666666666666661616666111111161116166611666611166666666666666166111111116661666666666616661666116166666661611661666666616111661166666661666666666666666666116611666666161666661111666196666166661161611116111111661111666966666616111111166166161116666611111611666666666666666111166666111166111666666666666666666666661666666661111116116661166
1152954847 0NORTH C 200  BURR       16661666161616611616616161111111111111111111111111111111161111111111161111111111111111111111111111111111116661111111111111111111111111111111196111111111111111111111111116666116161999999991111111119111111111111111111111116616616616666666616161611111111111111111111111111111111111111111666666666666616666111166611111111111111119111111111111111111111191111166161611111111111111111111991619991111111111111111111111111111111166161111111111111111111111161111111111611111166666111111111111111119111111111111961611911111111111111111111991996111111111111111616111111111111111111111116111111111661611661111191
1154150447 0NORTH C 200  TILLIS     16999966161616611616616161111111111119111111111111111111161111111111161111111111111111111111111111111111116661111111111111111111191111111911116111111111111911111111111116666116161111111111111111111111111111991111111111116616616616666666616161611111111111111111111111111111191111111111666666666666616666111166611111111111111111111111111111111191111111111111161611111111111111111111111611161111111111991111111111111111111166161111111111111111111111111111111111111111166111111111119111111111111111161111666611999911111111111111111111116111111111111111116111111111111111111111116119999911999999991161191
1154110736 0NORTH D 200  HOEVEN     16661666161616611616616161111111111111111111111111111111161111111111161111111111111111111111111111111111116661111111111111111111111111111111116111111111111111111111111116666116161111111991111111111111111111111111111111116616616616666666116161611111111111111111111111111991111111111111666666666661616666111166611111111111111111111111111111111111111111111111161611111111111111111111111611111111111111111111111111111111111166161191111111111111111111661111111111111111116166111111111111111111111111161111661611111199111111111111111111116111111111111111116111111111111111111111116111111111661611611111111
1154130336 0NORTH D 100  HEITKAMP   61616111616161166166161616111111111111161116666666661661616666611166111111111116661611611116666611666111111111111111116611116111166111166111111111111111111111111166116661166611616111661111111111611116666111166111111111611116161111116116661666166111611116611116616666661166616111111666111161111111169111611616111666611111666111111111111111111111116616111111116111166111119111111111111611111166661111166161666111116611111111661166111111111111116116661111111111611161116111611111611161166611111111161111161111111199111611111111611111116111111166111166111999999999999911111111161666666661111116116661116
1152938624 0OHIO    200  PORTMAN    16661666111666611616616161111111111111111111111111111111161111111111161111111111111611111111111111111111116661111111111111111111111111111111116111111111111991111111111166616116161111111111161111111111111111111111111191116616616616666666616161611111111111111111111111111111111111111111666666666666616666111166611111111111111111111111111111111111111111111111161611111111111111111111111611111111111111611111111111111111111166161111111111111111111111191111111111111111116116111111111111111111111111161111661611111111111111111111111111116111111111111111116111111111111111111111111111111111661611611111111
1152938924 0OHIO    100  BROWN      61616111616161166161161616111116161666666666666666661661616666616666616616111666666666611116666611666116661116611166666611666116666661166161111111111166116611161166666661167611616616661111111111661116666111166666666666611111161111116116661666166111611666666666616666661166616661111666111111111116161111666611161666666661666161111111116661661111666616661611116166666661111161666661116611111166666661666666666666666666116611666666161666661111116116661111111111611111111111611111666166666619111111166161161111661111111611666666691611116111116666111166111666666666666611616666661666666661111116116661116
1151542453 0OKLAHOM 200  INHOFE     16661666161616611616616161111111111111111111111111111111161111111111161111111111111111111191111111111111116661111111111111111111111111111111116111111111111111111111111116666116161111119991666111111111111111111111111111116616616616666666116161611666111111111111111111111111111111111111666666666666616666111166611111111111111111111111111111111111111111111111161661111111111111111111111611111111111111111111111111111111111166161111111111111111111111111111111111111161166666111116111911111111111111111611661611999999111161111111111191116111111111111111116111111111111111111111116991111111661611611111191
1152116653 0OKLAHOM 200  LANKFORD   16161666161616611616616161111111111111111111111111111111161111111111161111111111111111111111111111111111116661111111111111111111111111111111116111111111111111111111111116666116161111111111666611111111111111111111111111116616616616661661116161611666111111111111111111111111111111111111666666666666616666111166611111111111111111111111111111111111111111111166161611111111111111111111111611161111111111111111111111111111991166111111111111111111111111611111111111111161166666111161111111111111111611111611666611111111111161111111111111116116111111111111116111111111111111111111116111111111661611616661161
1151487172 0OREGON  100  WYDEN      61616111616161166161161616611666161666666666666666661661616666616666616667166666666666666116666611666616661116661166666616666116666111166161111111111166616611111166666661167611616666661111111166666666666161166666666666611111161111116116661666166111666666666666616666666666616661111666111111111116161111696611161666666666666166111111116661666611666616661616116166666661111161666661166161111166666661666666666666666666116611666666161666661111666666666166611161611111116111661111666166666616111111166161161116666111111611116666611666616111166666166166111966666166666611666666661666666661111116116661116
1154090872 0OREGON  100  MERKLEY    61616111616161166161161616611666166666666666666666661661616666616666616666666666666666666616666611666166661116611166666616666666666111166966111111111166666611661166666661167611616966661611111116666666666661166666666666661111161111116116661666166111666696666666666666666666666661111666111111161116161111696611166666666666666169111111116661666666666616661666116166666661661661666666616111661166666661666666666666966666116611666666666666661111666666666166611161611111111111661111666166666616111111166161161116666699111611666666666666616111199666166166111666666666666611666666661666666661111116116661116
1152993514 0PENNSYL 200  TOOMEY     16161666161616611616616161111111111111111111111111119116161111111111161111111111111111111111111111111911116661111119111161111119111111111911116111111111111111111111191116666116161111111111666611119111111111119111111111116616616616666666166161611666111111111111111111111111111111111111666666666666616666111166619111111111111111911111119111111111111191119166161611111111111111111111991619991111111119111111111111111111111166111111111111111111111111111111116111111161161611111111111111111111111616111616616661999999996166111111111119111116611111161111116111111111111111111111111111111116661611661111161
1154070314 0PENNSYL 100  CASEY      61616111616161166166161616111116161666666666666666661661616666611666616616666666666666611116666611666116661116611166666611666116666111166111111111111166116611111166666661167611616111661111111111111116666111166666666111611111161111116116661666166111611116666666616666661166616661111666111111111116161111666611161666666661666161111111111111661111666691661611116161166661111161666661116111111166666611666166666666666666116611666666161111661111116116661111111111611111116111611111666166666611111111166161161111661111111611111161611611116111111166111166111666666166666611666661161666666661111116116661116
11529142 5 0RHODE I 100  REED       61616111616161166161161616111111161666666666666666661661616666616666616666616666666666611116666611666116661116661166666616666666666111166161111111111166116611111166666661167611616616661611111111111116666111166666666111611111161111116116661666166111611116666666616666661166616661111666111111111116166111611611161666666611666161111111111111661111666616661611116166666111111161666661111611111166666611666666666666666666116611666666161111661111116116661111111111611111111111611111611166666611111111166161161111111111111611661161611116616111166666111166111666666166666111616666661666666661111116116661116
11540704 5 0RHODE I 100  WHITEHOUSE 61616111616161166161161616111111161666666666666666661661616666616666616666666666666666611116666611666116661116661166666616666666666111166161111111111166116611111166666661167611616616661611111111161116666161166666666111611111161111116116661666166111669916666666616666661166616661111666111111111116161911666611161666666611666161111111111111661111666616661611116161166111111161666661111611111166666661666666666666666666116611666666161666661111116116661111111111611111111111611111611166666611111111166161161111111111111611666611666616616111166666111166111666666166666111616666661666666661111116116661966
1152117348 0SOUTH C 200  SCOTT      16161666161616611616616161111111111111111111111111111111161111111111161111111111111111111111111111111111116661111111111161111111111111111111116111111111111111111111111116666116161111111111611191111111111111111111111111116616616616666666116161611111111111111111111111111111111111111111666666666666616666111166611111111111111119111111111111111199911111111111161611111111111111111111111611111111111111111111111111111111111166111111111111111111111111611111111111111111161166111116111111111111111111111111666611111111111161111111111111111111111111111111116111111111111111111111116111111111661611611111111
1152956648 0SOUTH C 200  GRAHAM     16991666161616611616616161111111111111111111911111111111161111111111161111111111111111111111111111111111116661111111111161116111111111111111116161199111111111111111111616666116161911111111111691111999111111111111111191116616616616666666166161611911619111111111111111111111111111111111666666666666616666191166611111111111111111111119911111611111111111111111111111111111111111111111111611111111111111111111111111999991991166161111111111111111111111161111111111111119916111111116111911111111111111161111661611111111111111999111111111116111111111111111116111111111111111111911111111111111661611999999161
1152975437 0SOUTH D 200  THUNE      16661666161616611611616161111111111111111111111111111111161111111111161111111111111111111111111111111111116661111111111111111111111111111111116111111111111111111111111116666116161111111111111111111111111111111111111111116616616616666666116161611161111111111111111111111111111111111111666666666666616666111166611111111111111111111111111111111111111111111111161661111111111111111111111611111111111111111111111111111111111166161111111111111111111111111111111111111111166166111111111111111111111111111111661611111111111161111111111111116111111111111111116111111111111111111111116111111111661611611111111
1154150537 0SOUTH D 200  ROUNDS     16666666161616611616616161111111111111111111111111111111161111111111161111111111111111111111111111111111116661111111111111111111111111111111116111111111111111111111111116666116161111111111111111111111111111111111111111116616616616666666616161611111111111111111111111111111111111111111666666666666616666111166616111111111111111111111111111111111111111111111161119999999991111111111111611111111111111111111111111111111111166161111616111111111111111111111111111111111116166111111111111111111111111161111661611111111111161111111111111116111111111111111116111111111111111111111116111111111661611661116111
1154030454 0TENNESS 200  ALEXANDER  16666666161616611616616161911111111111111111111111111111161111111111161111111111111111119911111111111111116661111111111111111111111191111111916111111111911111111111191166666116161111111111111111111111111111111111111111116616616616666666666166611111111191111111111111111111111111111111666666666666616666119999911111111111111119911119999111111111111111119111161111111111111111111111111616111111111111111111111111111111111166161111111111111111111111611111111111111111119911111111111111111111111111161111661611999911111111111111111111116111111111111111116111111111111111111111111111111111661111696661161
1154070554 0TENNESS 200  CORKER     16661666161616611616616161111111111111111111111111111111161111111111161111111111111111119911111111611111116661111111111661111111111111111111116111111111111111111111111616666116661111111111166611111161111111111111111111116616616616666666166166611166111111111111111111111111111111111191666666666666616666691116611111111111111111911111111111111199999991111166161619111111111111111111111616661111111111111111111111111111111166161111116111111111111111116166111111199991116611111111111111111119111111111111116611111111111999111111111191116111199111111111116111111111111111111111111111111111661111616611191
1154030549 0TEXAS   200  CORNYN     16666666161616611616616161111111111111111111111111111111161111111111161111111111111111111111111111111111116661111111111111111111111111111111116111111111111111111111111116666116161111111111111111111111111111111111111111116616616616666666166161611111111111111111111111111111111111111111666666666666616666111166611111111111111111111111111111111111111111111111161611111111111111111111111611111111111111111111111111111111111166111111111111111111111111161111111111111111166111111111111111111111111111111111661611111111111199111111111111116111111111111111116111111111111111111111116111111111661611611111111
1154130449 0TEXAS   200  CRUZ       16161666161616661611616161111111111111111111111111111119991111111111161111111111111111111111111111111111116661111111111161111111111111111119116111111111111111111111111116666116161111111111611111111111111111111111111111116616616616666666116111611111111111111111111119911111191111111111666666666661616666111166616111111111111611999111111611111166111111111111661661111111119911111111111611661111111111111111111111111111991166111111111119991111111111611111111111111161161166111111111111111111111111111111616661111199111999999999911191116111111111119911116111111111111111111111116111111111666611611111161
1151450367 0UTAH    200  HATCH      16666666161616611666616161111111111111111111111111111111161111111111161111111111111111111111111111111111116661111111111111111111111111111111116111111111111111111111111116666116161111111111161111111111111111111111111111116616616616666666111161611111111111111111111111111111111111111111666666666666616666191166611111111111111119111111111111111111111111111111161611111111111111111111111611111111111111111111111111111111111166161111111111111111111111611111111111111111116111111111111111111111111111161111661111111111111161111111111111111111111111111111116111111111111111111111116111111111661611616661119
1154111067 0UTAH    200  LEE        16161666161616661611616161111111111111111111111111111111161111111111161111111111111111111111111166111111116661111111111161111111111191111111111611111111111111111111111616666116161111111111666611616661111111111111111111166616616616661661111111611666111111111111111111111111111111111111666666666661616666191166616111111111111661111111116666616666111111111166161661111111111111111111116616661111111111111111111111111111991166111111611111111111111111616166616111111166661611116611166111111111116616111616616666999999116166111111111111111666611111166611666111111111111111161111111111111116616116116661161
11514307 6 0VERMONT 100  LEAHY      61616111616161166161161616611116161666666666666666661661616666611666616666666669666666611116666611666116661116611166666616666116666111166161111111111196116611111166966661167611616111661111111111619166666111166666666166611111161111116116661666166111691116666666616666661166616661111666111111111116161111666611161666666661666111111111116661666611666616661611916161166111111161666661116111111166666611666666666666116616111611666666111111661111196116661111111111611111119911611111666966666611111111166161161111111111111611999999911111116111161166111166111666666166666111666666661666666661111116116661116
11529147 6 0VERMONT 328  SANDERS    61616111616161166161161616611166666666666666666666661669996666616666616666666666666666666616666611666166661116661166666619966666666666666166161111616166669611666666666661167661616616666661111166666666666661169666666666661111161111116116661666166111666699666666666666666666666661116666111111161116166611696611166666666666666166111111916661666666666666661666116166666661611661666666616111666666666666666666666666666666116611666666666696691111666666666166611161611111111111661111666166666616111111166161161116666611116616666666696666616116666666111166111666666666666666666966661666666661111116116661166
1154090940 0VIRGINI 100  WARNER     61616111616161166166161616111111111116666666666666661669996666611666616111111116666666611116666611666116661116611111116611666111166111166111116111111111119611111166666661167616616111661111111111111116666111166661166111611111161111116116661666166111611116611699916666661166616661111666111111111616161111611611111666666611666111111111111111661111666616111611116161166111111111111111116611111166666611166666666666116616111611661166111111661111116116661111111111611111116111611111611161166611111111169161161111111111111611661111611616616111111166111166111666666166666111111666661666666661111116116661916
1154130540 0VIRGINI 100  KAINE      61616111616161166161161616111191161666666666666666661661616666611666616111166666666666611116666611666116661116611166666611666111169911166111111111111111116611111166666661167616616616661111111111611116666161166666666111611111161111116116661666166111611111166666616666661166616661111666111111111116161111666611161666666611666111111111111611661111666616661611116161166111111111111116616611111166666611166666666666666616111611666666111111661111116116661111111111611111116111611111611166666611111111166161161111111111111611111111611616616111111166111166111666666166666611111666661666666661111116116661116
1153931073 0WASHING 100  CANTWELL   61616111616161166166161616111116161666666666666666661661616666611666616666666666666666611116666611666916661116611166666616666116666111169161111111111166116611111166666661167611616616661111111111611116666161166666666116611111161111116116661666166111611666666666616666661166616661111666111111111116161111666611161666666611666161111111116661661111666616661666116166666661111161666661116111111166666661666666666666666666116611666666161666661111116116661111111111611111116111611111611166666611111111166161161111661111111611116616611616616111111166111166111666666666666611666666661666666661111116116661116
1154930873 0WASHING 100  MURRAY     61616111616161166166161616611116161666666666666666661661616666616666616666666666666666611116666611666616661116611166666616666116666111166161111111111166116611111166666661167611616616661111111111611116666161166666666111611111161111116116661666166111611666666666616666661166616661111666111111111116161111666611161666999661666161111111116661661111666616661611116166666661111161666666116111111166666661666666666666666666116611666666161666661111116116661111111111611111116111611111611166666611111111166161161111999999999999916611611616616111111166111166111666666666666611666666661666666661111116116661116
1152014656 0WEST VI 200  CAPITO     16666666111616611616616161111111111111111111111111111111161111111111161111111111111111111111111111111111116661111111111111111991111111111111116111111111111111111111191166616116161111111111111111111111111111111111111111116616616616666666616161611111111111111111111111111111111111111111666666666661616666111166611111111911111111111111111111111111111111191111161611111111111111111111111611111111111111111111111111111111111166161191111111111111111111111111111111111161111111111116111111111111111111161111616611111111111111111111111111116111111111111111116111111111111111111111116111111111661611611111111
1154091556 0WEST VI 100  MANCHIN    61616111616161166161111616111111111116661111666666661611611661111166111661111116661611611116661111666611111111111111116611666111166111166111116111111111111111111166116661166611616616661111111111111116666111111111111111611111111111116116661666666111611111111111111166661116616111111116111161111111161161611616111666669111666111111111111111111111116611111111161111166111111111111111111611111166661111611161611111116611991111661111111111661111116116161191111111611161116111111111111161166611111111161111161111111111111611911111611111116111111166111111111116666111161111111661161666666661111116116661116
1152994025 0WISCONS 100  BALDWIN    61616111616161166161161616611116161666666666666666661661616666616666616666666666666666666116666611666116661116611166666611666116666661166161111111111111116611111166666661167611616616661111111111611116666161166666666116611111161111116116661666166111611116666666616666661166616661111666111111111116161111666611161666666991666161111111116661661111666619661611116161166111111161666661116611111166666611166666666666666666116611666666111666661111116116661111111111611111116111611111666166666611111111166161161111111111111611116611666616616111111166111166111666666166666611666666661666666661111116116661116
1154111125 0WISCONS 200  JOHNSON    16661666161616611616616161111111111111111111111111111111161111111111161111111111111111111111111111111111116661111111111111111111111111111111116111111111111111111111111116966116161111111111166611111111111111111111111111116616616616666666116161611666111111111111111111111111111111111111666666666666616666111166611111111111111111111111111111111111111111111166161611111111111111111111111611661111111111111111111111111111111166111111111111111111111111116161111111111161161611111111111111111111111111111611661661111111111161111111111111111111199111111111116111111111111111111111116111111116661611696611911
1154070768 0WYOMING 200  BARRASSO   16666666161616611616616161111111111111111111111111111111161111111111161111111111111111111911111111111111116661111111111111111111111111111111116111111111111111111111111116666116161111111111161111111111111111111111111111116616616616666666116161611666111111111111111111111111111111111111666666666666616666111166611111111111111111111111111111111111111111111111161661111111111111111111111611661111111111111111111111111111111166111111111111111111111111611116111111111161166166111166111111111111111111111611661611111111111161111111111111116111111111166111116111111111111111111111116111111116661611661116111
1154970668 0WYOMING 200  ENZI       16666666161616611616616161111111111111111111111111111111161111111111161111111111111111111111111191111111116661111111111111111111111111111111116111111111111111111111111116616116161111111111166611111111111111111111111111116616616616666666666161611666111111111111111111111111111111111111666666666666616666111166611111111111111111111111111111111111111111111166161661111111111111111111111611661111111111111111111111111111111166111111111111111111111111611116111111111161166166111166111111111111111111111611661611111111111161111111111111116111111111111111116111111111111111111111116111111116661611661116161